:100000000C9435000C945D000C945D000C945D0024
:100010000C945D000C945D000C945D000C945D00EC
:100020000C945D000C945D000C945D000C945D00DC
:100030000C945D000C945D000C945D000C945D00CC
:100040000C949A020C945D000C940A030C94E40244
:100050000C945D000C943C030C945D000C945D00CA
:100060000C945D000C945D00530711241FBECFEF6C
:10007000D8E0DEBFCDBF11E0A0E0B1E0E0EFFFE0EF
:1000800002C005900D92A632B107D9F727E0A6E28B
:10009000B1E001C01D92A635B207E1F710E0C5E35B
:1000A000D0E004C02197FE010E94DC07C433D107D1
:1000B000C9F70E94D7040C94F6070C9400003FB7D0
:1000C000F8948091B5069091B606A091B706B091CC
:1000D000B80626B5A89B05C02F3F19F00196A11DB3
:1000E000B11D3FBFBA2FA92F982F8827BC01CD0182
:1000F000620F711D811D911D42E0660F771F881FE1
:10010000991F4A95D1F70895CF92DF92EF92FF920F
:100110000E945F006B017C010E945F006C197D09E9
:100120008E099F09683E734081059105A8F3FF90F1
:10013000EF90DF90CF900895AF92BF92CF92DF9271
:10014000EF92FF920F931F93CF93DF936C017B018C
:100150008B01040F151FEB015E01AE18BF08C0171D
:10016000D10759F06991D601ED91FC910190F08190
:10017000E02DC6010995892B79F7C501DF91CF9153
:100180001F910F91FF90EF90DF90CF90BF90AF90B5
:100190000895FC01538D448D252F30E0842F90E08D
:1001A000821B930B541710F0CF9608950197089572
:1001B000FC01918D828D981761F0A28DAE0FBF2F3B
:1001C000B11D5D968C91928D9F5F9F73928F90E091
:1001D00008958FEF9FEF0895FC01918D828D981700
:1001E00031F0828DE80FF11D858D90E008958FEF3D
:1001F0009FEF0895FC01918D228D892F90E0805C06
:100200009F4F821B91098F739927089589EB96E080
:100210000E94FA0021E0892B09F420E0822F089542
:1002200080E090E0892B29F00E94060181110C9456
:1002300000000895FC01A48DA80FB92FB11DA35A89
:10024000BF4F2C91848D90E001968F739927848FF6
:10025000A689B7892C93A089B1898C918370806419
:100260008C93938D848D981306C00288F389E02DBA
:1002700080818F7D80830895EF92FF920F931F936B
:10028000CF93DF93EC0181E0888F9B8D8C8D981349
:100290001AC0E889F989808185FF15C09FB7F89455
:1002A000EE89FF896083E889F989808183708064A1
:1002B00080839FBF81E090E0DF91CF911F910F91EC
:1002C000FF90EF900895F62E0B8D10E00F5F1F4FFB
:1002D0000F731127E02E8C8D8E110CC00FB607FC0A
:1002E000FACFE889F989808185FFF5CFCE010E9498
:1002F0001A01F1CFEB8DEC0FFD2FF11DE35AFF4FEB
:10030000F0829FB7F8940B8FEA89FB898081806225
:10031000CFCFCF93DF93EC01888D8823B9F0AA89E2
:10032000BB89E889F9898C9185FD03C0808186FDB0
:100330000DC00FB607FCF7CF8C9185FFF2CF8081FF
:1003400085FFEDCFCE010E941A01E9CFDF91CF9159
:100350000895FC0101900020E9F73197AF01481B97
:10036000590BBC0189EB96E00C949C008F929F92F4
:10037000AF92BF92CF92DF92EF92FF920F931F93B3
:10038000CF93DF93CDB7DEB7A1970FB6F894DEBF5A
:100390000FBECDBF6C01990FEE08FF08F7FE47C0F6
:1003A0006DE289EB96E00E943C018C012227332705
:1003B000A9012C193D094E095F0919A2CE018196A8
:1003C0007C019AE0892E912CA12CB12CCA01B90193
:1003D000A50194010E94A607605DF70162937F0169
:1003E000211531054105510589F790E080E03097EE
:1003F00019F0CF010E94A901080F191F88E191E0AF
:100400000E94A901800F911FA1960FB6F894DEBF3C
:100410000FBECDBFDF91CF911F910F91FF90EF9055
:10042000DF90CF90BF90AF909F908F900895A701DD
:10043000960119A28E010F5D1F4F8AE0C82ED12CA4
:10044000E12CF12CCA01B901A70196010E94A6076F
:10045000605DF80162938F01211531054105510559
:1004600089F7309729F0CF010E94A9018C01C6CFEE
:1004700010E000E0C3CFAF92BF92CF92DF92EF9235
:10048000FF920F931F93CF93DF93CDB7DEB76C012D
:10049000ADB6BEB605962DB73EB7281B390B0FB6C5
:1004A000F8943EBF0FBE2DBF8DB79EB701967C015D
:1004B00010E000E089EB96E00E94FA001816190699
:1004C0001CF00E948400F6CF89EB96E00E94D800D1
:1004D000F701E00FF11F80838A30C1F4012BA1F0F6
:1004E0001082C7010E9480070FB6F894BEBE0FBEEF
:1004F000ADBEDF91CF911F910F91FF90EF90DF90F4
:10050000CF90BF90AF9008950FEF1FEFF701E00F6E
:10051000F11F80818D3021F4012B11F70FEF1FEFB8
:100520000F5F1F4FF701E00FF11F10820C151D0523
:100530000CF2D7CF1F920F920FB60F9211242F9368
:100540003F938F939F93AF93BF938091B106909108
:10055000B206A091B306B091B4063091B00623E084
:10056000230F2D3758F50196A11DB11D2093B0061C
:100570008093B1069093B206A093B306B093B406ED
:100580008091B5069091B606A091B706B091B806D5
:100590000196A11DB11D8093B5069093B606A09358
:1005A000B706B093B806BF91AF919F918F913F91DD
:1005B0002F910F900FBE0F901F90189526E8230FD4
:1005C0000296A11DB11DD2CF1F920F920FB60F92AE
:1005D00011242F933F934F935F936F937F938F9348
:1005E0009F93AF93BF93EF93FF9389EB96E00E94A5
:1005F0001A01FF91EF91BF91AF919F918F917F91E0
:100600006F915F914F913F912F910F900FBE0F907F
:100610001F9018951F920F920FB60F9211242F93CF
:100620008F939F93EF93FF93E091C906F091CA06D1
:100630008081E091CF06F091D00682FD1BC09081B1
:100640008091D2068F5F8F732091D306821741F07D
:10065000E091D206F0E0E754F94F958F8093D206EF
:10066000FF91EF919F918F912F910F900FBE0F905F
:100670001F9018958081F4CF1F920F920FB60F92A2
:1006800011242F933F938F939F93AF93BF93EF9337
:10069000FF9330917800209179008091A20690918B
:1006A000A306A091A406B091A506232732272327ED
:1006B000880F991F885D9E4FFC01318320838091B4
:1006C000000190910101019609F050C18091AA06A4
:1006D0009091AB069093A1068093A0068091AC0602
:1006E0009091AD06892BE9F58091A2069091A30621
:1006F000A091A406B091A506880F991F885D9E4F12
:10070000FC012081318180910401909105018217C3
:10071000930738F5E0912601F0912701EE0FFF1FB6
:10072000E85DFE4F208131818091040190910501A7
:1007300082179307B0F08091AE069091AF060197B3
:1007400081F48091A2069091A306A091A406B09195
:10075000A50690930101809300011092A7061092C4
:10076000A6068091AC069091AD060197E9F58091BF
:10077000A2069091A306A091A406B091A506880FA9
:10078000991F885D9E4FFC01208131818091040179
:10079000909105012817390738F5E0912601F0916D
:1007A0002701EE0FFF1FE85DFE4F20813181809110
:1007B00004019091050128173907B0F08091AE0629
:1007C0009091AF06019781F48091A2069091A306C3
:1007D000A091A406B091A506909301018093000119
:1007E0001092A7061092A6068091AC069091AD06D5
:1007F000029709F07AC08091A2069091A306A09179
:10080000A406B091A506880F991F885D9E4FFC0134
:100810002081318180910401909105018217930715
:1008200038F5E0912601F0912701EE0FFF1FE85DFA
:10083000FE4F208131818091040190910501821742
:100840009307B0F08091AE069091AF06019781F4C6
:100850008091A2069091A306A091A406B091A5064E
:1008600090930101809300011092A7061092A606B2
:100870008091A2069091A306A091A406B091A5062E
:10088000880F991F885D9E4FFC01208131818091E6
:100890000401909105012817390738F5E0912601E8
:1008A000F0912701EE0FFF1FE85DFE4F208131819F
:1008B000809104019091050128173907B0F08091CB
:1008C000AE069091AF06019781F48091A2069091B7
:1008D000A306A091A406B091A50690930101809370
:1008E00000011092A7061092A6068091A206909190
:1008F000A306A091A406B091A5069093270180932A
:1009000026018091A2069091A306A091A406B09121
:10091000A5060196A11DB11D8093A2069093A30682
:10092000A093A406B093A5068091A2069091A30679
:10093000A091A406B091A5068C3B9240A105B105FB
:1009400044F01092A2061092A3061092A4061092F0
:10095000A506FF91EF91BF91AF919F918F913F912C
:100960002F910F900FBE0F901F9018958091A606A3
:100970009091A70601969093A7068093A6062091D2
:10098000A6063091A706809102019091030182177B
:1009900093070CF0B6CF8FEF9FEF9093A70680934D
:1009A000A60680917A008F7780937A00AACFCF93A2
:1009B000DF9300D0CDB7DEB7789484B5826084BD74
:1009C00084B5816084BD85B5826085BD85B5816053
:1009D00085BD80916E00816080936E0010928100D1
:1009E000809181008260809381008091810081608C
:1009F000809381008091800081608093800080914D
:100A0000B10084608093B1008091B00081608093D8
:100A1000B00080917A00846080937A0080917A009F
:100A2000826080937A0080917A00816080937A005E
:100A300080917A00806880937A001092C100E091E2
:100A4000C906F091CA0682E08083E091C506F09164
:100A5000C6061082E091C706F091C80681E0808347
:100A60001092D106E091CD06F091CE0686E080830B
:100A7000E091CB06F091CC06808180618083E0918B
:100A8000CB06F091CC06808188608083E091CB0614
:100A9000F091CC06808180688083E091CB06F09154
:100AA000CC0680818F7D808380917C008F778093BE
:100AB0007C0080917C00806480937C0080917C002D
:100AC00080937C0080917A008F7780937A00809168
:100AD0007A008F7B80937A0080917A008062809385
:100AE0007A0080917A00886080937A0080917A0001
:100AF000846080937A0080917A00826080937A008B
:100B000080917A00816080937A0080917B008F7B56
:100B100080937B0080917B008B7F80937B00809112
:100B20007B008D7F80937B0080917B008E7F809304
:100B30007B0080917E00806280937E0080917E00A9
:100B4000806180937E0080917E00886080937E002B
:100B500080917E00846080937E0080917E00826020
:100B600080937E0080917E00816080937E008091E2
:100B70007A00806880937A0080917A008064809304
:100B80007A002CEBE22E22E0F22E30E0632E30E0F1
:100B9000732E42E0A42EB12CCC24C394D12C8824F3
:100BA0008A94982C89EB96E00E94FA001816190690
:100BB00034F589EB96E00E94D800EEE9E80FE331C6
:100BC000F0F40E2E000CFF0BE851FA4F0C94DC07EA
:100BD0000207FB05FF05FF05FF05FF05FF0566068C
:100BE000FF05FF05FF0584061007FF05B906FF0591
:100BF000FF0520076B06D092AF06C092AE0680912B
:100C00000001909101019A83898389819A812091C1
:100C1000A8063091A906821B930BB7010E94C80752
:100C200097FF02C084549D4F9A8389838091A606C2
:100C30009091A706019609F028C18091000190913A
:100C40000101019609F421C180E291E00E94A9010D
:100C500080910201909103010E94B6018091A0064B
:100C60009091A1060E94B60110E000E0809102017F
:100C700090910301081719070CF0F3C0E981FA817C
:100C8000EE0FFF1FE85DFE4F6081718189EB96E0FA
:100C90000E943C01E981FA81EE0FFF1FE85DFE4FE3
:100CA00080819181692F89EB96E00E943C018981C6
:100CB0009A810196B7010E94C80797FF02C0845429
:100CC0009D4F9A8389830F5F1F4FD0CF1092AF063D
:100CD0001092AE0694CF84E090E00E943B028C011B
:100CE000811524E092070CF08ACF97FF08C08BE1B2
:100CF00091E00E94A90188E191E00E94A90110936E
:100D00000501009304017BCF89EB96E00E94FA0075
:100D1000181619061CF00E948400F6CF89EB96E0A5
:100D20000E94D800803209F06ACF89EB96E00E94D9
:100D3000FA00181619061CF00E948400F6CF89EB01
:100D400096E00E94D800803339F0813351F4D0927C
:100D5000AD06C092AC0653CF1092AD061092AC0611
:100D60004ECF823309F04BCFB092AD06A092AC06C5
:100D700046CF81E090E00E943B028530910508F06B
:100D80003ECF8130910539F13CF40097A1F090936A
:100D9000AB068093AA0633CF8230910551F18330A0
:100DA0009105A9F720917A00246020937A00209180
:100DB0007A002D7F18C020917A00246020937A0059
:100DC00020917A00226020937A0020917A0021609D
:100DD00020937A00DCCF20917A00246020937A005F
:100DE00020917A00226020937A0020917A002E7F51
:100DF000EFCF20917A00246020937A0020917A002E
:100E00002D7FE1CF84E090E00E943B028D3B42E0E9
:100E1000940708F0F4CE9093A9068093A806EFCE2D
:100E200084E090E00E943B029C012A503109203B63
:100E3000324008F0E4CE9093030180930201DFCEAC
:100E40001092A7061092A6068091A2069091A30682
:100E5000A091A406B091A506909301018093000192
:100E6000CECE0E94840090920101809200011092E7
:100E7000A7061092A60680917A00806880937A0077
:100E800080917A00806480937A000E9484006114CB
:100E9000710409F487CE0E940601882309F482CEEA
:100EA0000E9400007FCEE9EBF6E01382128288EE0A
:100EB00093E0A0E0B0E084839583A683B7838AE0C3
:100EC00091E09183808385EC90E09587848784EC22
:100ED00090E09787868780EC90E0918B808B81EC07
:100EE00090E0938B828B82EC90E0958B848B86ECE8
:100EF00090E0978B868B118E128E138E148E089530
:100F0000FC0188279927E89421912032E9F32930C0
:100F100010F02E30C8F32B3241F02D3239F46894A2
:100F200004C00E949E07820F911D219120532A30F8
:100F3000C0F31EF4909581959F4F08957AE0979F96
:100F4000902D879F802D910D11240895A1E21A2ED6
:100F5000AA1BBB1BFD010DC0AA1FBB1FEE1FFF1F5D
:100F6000A217B307E407F50720F0A21BB30BE40BAD
:100F7000F50B661F771F881F991F1A9469F76095F4
:100F80007095809590959B01AC01BD01CF010895AE
:100F900097FB072E16F4009407D077FD09D00E9426
:100FA000E20707FC05D03EF4909581959F4F089588
:100FB000709561957F4F0895EE0FFF1F0590F49196
:100FC000E02D0994AA1BBB1B51E107C0AA1FBB1F40
:100FD000A617B70710F0A61BB70B881F991F5A95C5
:100FE000A9F780959095BC01CD010895F894FFCFA5
:100FF000FFFF0A000A00000000003C019C00C9003D
:101000008901FA00D800EC000D0A004661696C0005
:06101000446174613A0026
:00000001FF
